:1000000016EF00F0EA6A0F0EE96EEF500EE0010EF7
:10001000016E006A002EFED7012EFBD74A0E006E3D
:10002000002EFED700D0EF2EF2D71200F86AD09E35
:10003000C150C00B0F09C16E070EB46E3F0E046EA7
:10004000060E056E5B0E066E4F0E076E660E086E90
:100050006D0E096E7D0E0A6E070E0B6E7F0E0C6E16
:100060006F0E0D6E93948A9493928A9293908A80E5
:10007000939A8A8A93988A9893968A96640E0F6EBA
:10008000C1DF93928A8293908A90939A8A8A640EAF
:100090000F6EB8DF93948A8493928A9293908A9099
:1000A000939A8A9A93968A86640E0F6EABDF939228
:1000B0008A9293948A8493988A8893968A96928057
:1000C00080A001D001D0CED7090E0E6E928080A004
:1000D00022D0036A0E50040FE96E000E0320EA6E70
:1000E000EFCF0FF0946A0FC08BFF0E06640E0F6EF9
:1000F00089DF0E5201E101D0ECD7090E0E6E93900C
:100100008A8093948A9493928A92939A8A8A9398F3
:0A0110008A9893968A96DAD70300C6
:020000040030CA
:0E00000000C81E1E0007B10003C003E003404D
:00000001FF
;PIC18F2221
;CRC=9C3E  CREATED="20-mar-24 10:28"
