:1000000000308A000428000007309F0083131F304F
:100010008305831605148312051C222883160610F7
:100020008312061083168610831286148316061117
:100030008312061583168611831286118316061203
:1000400083120616831685148312851C3B2883169B
:1000500006108312061483168610831286108316E8
:1000600006118312061583168611831286158316D0
:10007000061283120612831605158312051D5428D5
:1000800083160610831206108316861083128614B8
:1000900083160611831206158316861183128615A0
:0C00A00083160612831206120928630062
:02400E00503F21
:00000001FF
;PIC16F628A
;CRC=C130  CREATED="03-abr-24 20:18"
