:1000000001308A00F22900000A108A100A118207C2
:10001000313432343334343435343634373438349C
:1000200039342A34303423340A108A100A118207F2
:1000300028340C34013406348C21F23465106110FC
:10004000F3326E34611D0A000C22E933693A6510FF
:100050006110F3326E34611D0A008A296537E83079
:10006000A0316F39F232F43000018A296537E83067
:10007000A034EE316F39F232F43000008A110A12E6
:10008000062A3730840083130008031954280630E9
:10009000F800F701F70B4A28F80B49287B30F700E6
:1000A000F70B5028800B472808003E0EF039F70068
:1000B0000F30060577048600000006140230F700B2
:1000C000F70B602863280000061008000608F700F8
:1000D000060E0F39F8000800831606108610061168
:1000E000831286100F3083160605F03886008312BF
:1000F000061500000614000066207808BE000610F1
:100100000000061483288428000066207808BD00BB
:1001100006100F3083160605860083123E0EF70088
:10012000F030F70577083D04F8007808BD00BD1BE6
:1001300072283B1C86103B18861400000611000034
:1001400006103C0EBD000F30BD053D08BE00552019
:100150003C080F39BD00BE00552008000F30831643
:1001600006058600061086100611831286100611F9
:1001700006100F30B70041200130B2003208033CB6
:10018000031CCA280330BE0055200530B7004120AB
:10019000B20ABE280230BE0055200530B70041200B
:1001A000B2013208033C031CDE2832081420B300DD
:1001B000BB013308BC006C20B20AD1288A110A1294
:1001C000072A380BE428E7284030B900E828B901AD
:1001D00001303702B90739088038BA00BB013A0844
:1001E000BC006C2008003608073A031901290B3AB5
:1001F00003190629063A03190E29023A031914298C
:1002000019290130B700B800E1201E29BB010130D7
:10021000BC006C200230B70041201E290130B7001D
:100220000230B800E1201E29BB011030BC006C2058
:100230001E290130BB003608BC006C2008000B08EA
:10024000B2008B13831603178C170C1400000000E8
:1002500083120C087F39031966290313B3000317AF
:100260000D080313B40003170F080313B500330878
:10027000B600F320340803178D0003133508031765
:100280008F0083168C170C140000000083120C0DD5
:100290000E0D7F39031966290313B30003170D08E8
:1002A0000313B40003170F080313B5003308B60097
:1002B000F320340803178D000313350803178F004C
:1002C0008D0A03198F0A0313222903170313B21B84
:1002D0008B170800B201A00A2008213C0318EB2963
:1002E000230803197A29013A03198029033A0319CB
:1002F00086298B29DE3083168800831288008B299B
:10030000BE3083168800831288008B297E308316C6
:10031000880083128800211C972908081E391E3C7A
:10032000031D962921102208B200A201EA2908081B
:100330001E391E3C0319E52908080239031DA229AC
:10034000B301B62908080439031DA9290130B300F7
:10035000B62908080839031DB0290230B300B629B0
:1003600008081039031DB6290330B3003308B40060
:100370000330B500F701F801340803103518F7070A
:10038000F70CF80CB518F707F70CF80C3519F70748
:10039000F70CF80CB519F707F70CF80C351AF70736
:1003A000F70CF80CB51AF707F70CF80C351BF70724
:1003B000F70CF80CB51BF707F70CF80C23087807B7
:1003C0000420F800A2002114EA29A30A2308033C10
:1003D0000319A301A001FE3083168800831232089E
:1003E000F8000800AF01B001FF30B10083161F1400
:1003F0009F141F159F1107309C0083131F30830526
:100400008312A0012110A201A3013E28AE281C30B6
:1004100003178D0000308F0003131F213230B70007
:1004200041202F08033C031C302A6A217808A400CD
:100430000130B7004120A40803192F2A25302F07C7
:1004400084008313240880002408B600F3200230BF
:10045000B2009630B7004120B20B292AAF0A112A08
:1004600025302F07840083138001AF012430031748
:100470008D0000308F0003131F213230B700412060
:100480002F08033C031CC32A6A217808A40001300A
:10049000B7004120A4080319C22A2A302F0784007C
:1004A0008313240880002408B600F3200230B20031
:1004B0009630B7004120B20B582A25302F07840010
:1004C0008313000824020319B00A2F08033C031DFC
:1004D000C12A3008043C031DA62A2D3003178D00C5
:1004E00000308F0003131F2131103108831687005D
:1004F00083120714B1103108831687008312871006
:100500003111310883168700831207150830B200B5
:10051000FA30B7004120B20B882A31103108831617
:10052000870083120710B1103108831687008312E9
:1005300087103111310883168700831207112A3082
:100540002F07840083138001B001C12A35300317BF
:100550008D0000308F0003131F21B1113108831665
:100560008700831287150830B200FA30B7004120A7
:10057000B20BB52AB1113108831687008312871197
:0A058000B001AF0A402A352A6300DB
:02400E00323F3F
:00000001FF
;PIC16F877A
;CRC=61A4  CREATED="05-abr-24 19:19"
