:1000000000308A0011280000243084008313000887
:10001000031910282030F700F70B0C28800B0A2852
:10002000080007309F0083131F308305A10183164A
:1000300005148312051C4528831605148312051820
:10004000A10A1430A300FA30A4000420A30B232833
:10005000A2012108220203184528831606118312E3
:1000600006150430A300FA30A4000420A30B3328A3
:1000700083160611831206110430A300FA30A4007F
:0E0080000420A30B3E28A20A2928172863009B
:02400E00503F21
:00000001FF
;PIC16F628A
;CRC=A48D  CREATED="03-abr-24 10:08"
