:1000000000308A00192800002B3084008313000878
:10001000031918280130F800F701F70B0D28F80B29
:100020000C284A30F700F70B13281628800B0A28F3
:10003000472803081F39830007309F0083135B3074
:10004000A0003F30A1005B30A2003F30A30006308B
:10005000A4003F30A5005B30A6006630A7003F300B
:10006000A8006630A900AA0120302A078400831363
:100070000008AB008316860183122B088600AA0AAB
:100080002A08093C031CAA016430AB000428342868
:0200900063000B
:02400E00413F30
:00000001FF
;PIC16F628A
;CRC=186C  CREATED="20-mar-24 08:21"
