:1000000002308A004B2A00000A108A100A11820767
:10001000313432343334343435343634373438349C
:1000200039342A34303423340C22E933693A6510E8
:10003000F5362037F53665396F1D20000C27F5366B
:1000400065396F1DA01263008A110A125C2A2A30DA
:1000500084008313000803193A280630F800F701DA
:10006000F70B3028F80B2F287B30F700F70B3628DA
:10007000800B2D280800310EF039F7000F300605EF
:1000800077048600000006140230F700F70B4628BC
:1000900049280000061008000608F700060E0F3970
:1000A000F8000800831606108610061183128610C9
:1000B0000F3083160605F0388600831206150000FF
:1000C000061400004C207808B10006100000061449
:1000D00069286A2800004C207808B00006100F300C
:1000E0008316060586008312310EF700F030F705FF
:1000F00077083004F8007808B000B01B58282E1C90
:1001000086102E18861400000611000006102F0E0F
:10011000B0000F30B0053008B1003B202F080F3978
:10012000B000B1003B2008002830A6000C30A7002A
:100130000130A8000630A9000610861006110F3005
:100140008316060586000610861006110F308312EE
:10015000AA0027200130A5002508033C031CB8286D
:100160000330B1003B200530AA002720A50AAC28A7
:100170000230B1003B200530AA002720A501250848
:10018000033C031CCF282630250784008313000876
:10019000AA00AE012A08AF005220A50ABF288A1182
:1001A0000A125D2A2B0BD528D8284030AC00D9285C
:1001B000AC0101302A02AC072C088038AD00AE013A
:1001C0002D08AF00522008002908073A0319F22829
:1001D0000B3A0319F728063A0319FF28023A0319C4
:1001E00005290A290130AA00AB00D2200F29AE014F
:1001F0000130AF0052200230AA0027200F29013021
:10020000AA000230AB00D2200F29AE011030AF009F
:1002100052200F290130AE002908AF0052200800FB
:100220000B08A5008B13831603178C170C14000002
:10023000000083120313A51B8B1703170C087F39CB
:10024000031964290313A50003170D080313A6005F
:1002500003170F080313A7002508A900E4202608A8
:1002600003178D000313270803178F0003130B08D0
:10027000A8008B13831603178C170C1400000000C2
:1002800083120313A81B8B1703170C0D0E0D7F3958
:10029000031964290313A50003170D080313A6000F
:1002A00003170F080313A7002508A900E420260858
:1002B00003178D000313270803178F008D0A0319F6
:1002C0008F0A03131029031703138A110A12642AD1
:1002D000A501A00A2008213C0318E92923080319D5
:1002E0007829013A03197E29033A031984298929B7
:1002F000DE3083168800831288008929BE30831679
:1003000088008312880089297E3083168800831232
:100310008800211C952908081E391E3C031D9429BC
:1003200021102208A500A201E82908081E391E3C58
:100330000319E32908080239031DA029A601B429DD
:1003400008080439031DA7290130A600B4290808AC
:100350000839031DAE290230A600B4290808103957
:10036000031DB4290330A6002608A7000330A80007
:10037000F701F801270803102818F707F70CF80C05
:10038000A818F707F70CF80C2819F707F70CF80C62
:10039000A819F707F70CF80C281AF707F70CF80C50
:1003A000A81AF707F70CF80C281BF707F70CF80C3E
:1003B000A81BF707F70CF80C230878070420F800AF
:1003C000A2002114E829A30A2308033C0319A3016E
:1003D000A001FE308316880083122508F8008A11D8
:1003E0000A12682A0B08A6008B13831603178C17B2
:1003F0000C140000000083120313A61B8B170318B4
:10040000292A03170C087F390313A60003170D08C8
:100410000313A70003170F080313A8002608A90059
:10042000E420270803178D000313280803178F0003
:1004300003130B08A9008B13831603178C170C14D6
:100440000000000083120313A91B8B17A50B292A98
:10045000482A03170C0D0E0D7F390313A60003174E
:100460000D080313A70003170F080313A80026089D
:10047000A900E420270803178D0003132808031799
:100480008F008D0A03198F0A03100313A50BF2299D
:100490008A110A127A2A03081F39830083161F144F
:1004A0009F141F159F1107309C0083138312A00116
:1004B0002110A201A30124289428143003178D00D1
:1004C00000308F00031310293230AA00272068293A
:1004D0007808A4000130AA002720A4080319842A60
:1004E0001E3003178D0000308F00031009300313F6
:1004F000A500F2292408A900E4200230A5009630C6
:0C050000AA002720A50B7F2A672A6300B1
:02400E00323F3F
:00000001FF
;PIC16F877A
;CRC=09A7  CREATED="04-abr-24 17:52"
