:1000000000308A00302800002F08F8012E02031863
:100010000C282E08F7001828F7010830B000AE0DA4
:10002000F70D2F0877020318F700F80DB00B0F2813
:1000300008002E3084008313000803192D28013096
:10004000F800F701F70B2228F80B21284A30F700B7
:10005000F70B28282B28800B1F288A110A128628C4
:10006000FF30AA0083161F149F141F159F1107301D
:100070009C0083131F3083053F308312A00006309D
:10008000A1005B30A2004F30A3006630A4006D30A9
:10009000A5007C30A6000730A7007F30A80067309D
:1000A000A900AB01AC012C08093C031C8A28AD0156
:1000B0002D08093C031C88282B08AE000A30AF002D
:1000C000042020307807840083130008AE0000303D
:1000D000AA008316870183122E0887002B08AE0022
:1000E0000A30AF0004202030770784008313000813
:1000F000AE008316880183122E088800AB0A2B08F5
:10010000643C0319AB016430AE001928AD0A5828CD
:08011000AC0A532852286300D9
:02400E00733FFE
:00000001FF
;PIC16F877A
;CRC=C94F  CREATED="03-abr-24 20:30"
